{
    "abi": [
        {
            "type": "constructor",
            "inputs": [],
            "stateMutability": "nonpayable"
        },
        {
            "type": "function",
            "name": "articleCreators",
            "inputs": [
                {
                    "name": "",
                    "type": "bytes32",
                    "internalType": "bytes32"
                }
            ],
            "outputs": [
                {
                    "name": "",
                    "type": "address",
                    "internalType": "address"
                }
            ],
            "stateMutability": "view"
        },
        {
            "type": "function",
            "name": "articlePrices",
            "inputs": [
                {
                    "name": "",
                    "type": "bytes32",
                    "internalType": "bytes32"
                }
            ],
            "outputs": [
                {
                    "name": "",
                    "type": "uint256",
                    "internalType": "uint256"
                }
            ],
            "stateMutability": "view"
        },
        {
            "type": "function",
            "name": "articleRewardPool",
            "inputs": [
                {
                    "name": "",
                    "type": "bytes32",
                    "internalType": "bytes32"
                }
            ],
            "outputs": [
                {
                    "name": "",
                    "type": "uint256",
                    "internalType": "uint256"
                }
            ],
            "stateMutability": "view"
        },
        {
            "type": "function",
            "name": "checkAccess",
            "inputs": [
                {
                    "name": "articleId",
                    "type": "bytes32",
                    "internalType": "bytes32"
                },
                {
                    "name": "user",
                    "type": "address",
                    "internalType": "address"
                }
            ],
            "outputs": [
                {
                    "name": "",
                    "type": "bool",
                    "internalType": "bool"
                }
            ],
            "stateMutability": "view"
        },
        {
            "type": "function",
            "name": "claimRewards",
            "inputs": [
                {
                    "name": "articleId",
                    "type": "bytes32",
                    "internalType": "bytes32"
                }
            ],
            "outputs": [],
            "stateMutability": "nonpayable"
        },
        {
            "type": "function",
            "name": "creatorBalances",
            "inputs": [
                {
                    "name": "",
                    "type": "address",
                    "internalType": "address"
                }
            ],
            "outputs": [
                {
                    "name": "",
                    "type": "uint256",
                    "internalType": "uint256"
                }
            ],
            "stateMutability": "view"
        },
        {
            "type": "function",
            "name": "creatorsToPay",
            "inputs": [
                {
                    "name": "",
                    "type": "uint256",
                    "internalType": "uint256"
                }
            ],
            "outputs": [
                {
                    "name": "",
                    "type": "address",
                    "internalType": "address"
                }
            ],
            "stateMutability": "view"
        },
        {
            "type": "function",
            "name": "distributeCreatorIncome",
            "inputs": [],
            "outputs": [],
            "stateMutability": "nonpayable"
        },
        {
            "type": "function",
            "name": "hasAccess",
            "inputs": [
                {
                    "name": "",
                    "type": "bytes32",
                    "internalType": "bytes32"
                },
                {
                    "name": "",
                    "type": "address",
                    "internalType": "address"
                }
            ],
            "outputs": [
                {
                    "name": "",
                    "type": "bool",
                    "internalType": "bool"
                }
            ],
            "stateMutability": "view"
        },
        {
            "type": "function",
            "name": "isWaitingForPay",
            "inputs": [
                {
                    "name": "",
                    "type": "address",
                    "internalType": "address"
                }
            ],
            "outputs": [
                {
                    "name": "",
                    "type": "bool",
                    "internalType": "bool"
                }
            ],
            "stateMutability": "view"
        },
        {
            "type": "function",
            "name": "owner",
            "inputs": [],
            "outputs": [
                {
                    "name": "",
                    "type": "address",
                    "internalType": "address"
                }
            ],
            "stateMutability": "view"
        },
        {
            "type": "function",
            "name": "payToAccess",
            "inputs": [
                {
                    "name": "articleId",
                    "type": "bytes32",
                    "internalType": "bytes32"
                }
            ],
            "outputs": [],
            "stateMutability": "payable"
        },
        {
            "type": "function",
            "name": "registerArticle",
            "inputs": [
                {
                    "name": "articleId",
                    "type": "bytes32",
                    "internalType": "bytes32"
                },
                {
                    "name": "price",
                    "type": "uint256",
                    "internalType": "uint256"
                },
                {
                    "name": "ipfsCid",
                    "type": "string",
                    "internalType": "string"
                }
            ],
            "outputs": [],
            "stateMutability": "nonpayable"
        },
        {
            "type": "function",
            "name": "renounceOwnership",
            "inputs": [],
            "outputs": [],
            "stateMutability": "nonpayable"
        },
        {
            "type": "function",
            "name": "stake",
            "inputs": [
                {
                    "name": "articleId",
                    "type": "bytes32",
                    "internalType": "bytes32"
                }
            ],
            "outputs": [],
            "stateMutability": "payable"
        },
        {
            "type": "function",
            "name": "totalStakedOnArticle",
            "inputs": [
                {
                    "name": "",
                    "type": "bytes32",
                    "internalType": "bytes32"
                }
            ],
            "outputs": [
                {
                    "name": "",
                    "type": "uint256",
                    "internalType": "uint256"
                }
            ],
            "stateMutability": "view"
        },
        {
            "type": "function",
            "name": "transferOwnership",
            "inputs": [
                {
                    "name": "newOwner",
                    "type": "address",
                    "internalType": "address"
                }
            ],
            "outputs": [],
            "stateMutability": "nonpayable"
        },
        {
            "type": "function",
            "name": "treasuryBalance",
            "inputs": [],
            "outputs": [
                {
                    "name": "",
                    "type": "uint256",
                    "internalType": "uint256"
                }
            ],
            "stateMutability": "view"
        },
        {
            "type": "function",
            "name": "userStakes",
            "inputs": [
                {
                    "name": "",
                    "type": "bytes32",
                    "internalType": "bytes32"
                },
                {
                    "name": "",
                    "type": "address",
                    "internalType": "address"
                }
            ],
            "outputs": [
                {
                    "name": "",
                    "type": "uint256",
                    "internalType": "uint256"
                }
            ],
            "stateMutability": "view"
        },
        {
            "type": "event",
            "name": "AccessGranted",
            "inputs": [
                {
                    "name": "articleId",
                    "type": "bytes32",
                    "indexed": true,
                    "internalType": "bytes32"
                },
                {
                    "name": "user",
                    "type": "address",
                    "indexed": true,
                    "internalType": "address"
                }
            ],
            "anonymous": false
        },
        {
            "type": "event",
            "name": "ArticleRegistered",
            "inputs": [
                {
                    "name": "articleId",
                    "type": "bytes32",
                    "indexed": true,
                    "internalType": "bytes32"
                },
                {
                    "name": "ipfsCid",
                    "type": "string",
                    "indexed": false,
                    "internalType": "string"
                },
                {
                    "name": "creator",
                    "type": "address",
                    "indexed": true,
                    "internalType": "address"
                },
                {
                    "name": "price",
                    "type": "uint256",
                    "indexed": false,
                    "internalType": "uint256"
                }
            ],
            "anonymous": false
        },
        {
            "type": "event",
            "name": "OwnershipTransferred",
            "inputs": [
                {
                    "name": "previousOwner",
                    "type": "address",
                    "indexed": true,
                    "internalType": "address"
                },
                {
                    "name": "newOwner",
                    "type": "address",
                    "indexed": true,
                    "internalType": "address"
                }
            ],
            "anonymous": false
        },
        {
            "type": "event",
            "name": "Staked",
            "inputs": [
                {
                    "name": "articleId",
                    "type": "bytes32",
                    "indexed": true,
                    "internalType": "bytes32"
                },
                {
                    "name": "staker",
                    "type": "address",
                    "indexed": true,
                    "internalType": "address"
                },
                {
                    "name": "amount",
                    "type": "uint256",
                    "indexed": false,
                    "internalType": "uint256"
                }
            ],
            "anonymous": false
        },
        {
            "type": "error",
            "name": "OwnableInvalidOwner",
            "inputs": [
                {
                    "name": "owner",
                    "type": "address",
                    "internalType": "address"
                }
            ]
        },
        {
            "type": "error",
            "name": "OwnableUnauthorizedAccount",
            "inputs": [
                {
                    "name": "account",
                    "type": "address",
                    "internalType": "address"
                }
            ]
        },
        {
            "type": "error",
            "name": "ReentrancyGuardReentrantCall",
            "inputs": []
        }
    ],
    "bytecode": {
        "object": "0x608060405234801561000f575f5ffd5b5033600161002f6100246100ba60201b60201c565b6100e360201b60201c565b5f01819055505f73ffffffffffffffffffffffffffffffffffffffff168173ffffffffffffffffffffffffffffffffffffffff16036100a5575f6040517f1e4fbdf700000000000000000000000000000000000000000000000000000000815260040161009c91906101ec565b60405180910390fd5b6100b4816100ec60201b60201c565b50610205565b5f7f9b779b17422d0df92223018b32b4d1fa46e071723d6817e2486d003becc55f005f1b905090565b5f819050919050565b5f5f5f9054906101000a900473ffffffffffffffffffffffffffffffffffffffff169050815f5f6101000a81548173ffffffffffffffffffffffffffffffffffffffff021916908373ffffffffffffffffffffffffffffffffffffffff1602179055508173ffffffffffffffffffffffffffffffffffffffff168173ffffffffffffffffffffffffffffffffffffffff167f8be0079c531659141344cd1fd0a4f28419497f9722a3daafe3b4186f6b6457e060405160405180910390a35050565b5f73ffffffffffffffffffffffffffffffffffffffff82169050919050565b5f6101d6826101ad565b9050919050565b6101e6816101cc565b82525050565b5f6020820190506101ff5f8301846101dd565b92915050565b611cff806102125f395ff3fe608060405260043610610113575f3560e01c80638da5cb5b1161009f578063c0d64a8711610063578063c0d64a87146103a7578063d276c07e146103c3578063d74484d0146103ff578063f2fde38b1461043b578063fe27221e1461046357610113565b80638da5cb5b146102e7578063a165d08414610311578063ae3f6a2314610339578063c01f14161461034f578063c02f54fc1461038b57610113565b8063606d8847116100e6578063606d8847146101f5578063630a5b6c14610231578063715018a61461026d5780637790ddc61461028357806383177db3146102ab57610113565b80632a78280214610117578063313dab20146101535780633e1fd0da1461017d5780634de8fe5d146101b9575b5f5ffd5b348015610122575f5ffd5b5061013d600480360381019061013891906114e6565b61049f565b60405161014a9190611529565b60405180910390f35b34801561015e575f5ffd5b506101676104b4565b6040516101749190611529565b60405180910390f35b348015610188575f5ffd5b506101a3600480360381019061019e9190611575565b6104ba565b6040516101b091906115cd565b60405180910390f35b3480156101c4575f5ffd5b506101df60048036038101906101da91906115e6565b61051c565b6040516101ec9190611529565b60405180910390f35b348015610200575f5ffd5b5061021b600480360381019061021691906115e6565b610531565b6040516102289190611529565b60405180910390f35b34801561023c575f5ffd5b50610257600480360381019061025291906114e6565b610546565b60405161026491906115cd565b60405180910390f35b348015610278575f5ffd5b50610281610563565b005b34801561028e575f5ffd5b506102a960048036038101906102a491906115e6565b610576565b005b3480156102b6575f5ffd5b506102d160048036038101906102cc9190611575565b6106f1565b6040516102de91906115cd565b60405180910390f35b3480156102f2575f5ffd5b506102fb61071b565b6040516103089190611620565b60405180910390f35b34801561031c575f5ffd5b50610337600480360381019061033291906116c4565b610742565b005b348015610344575f5ffd5b5061034d6108f9565b005b34801561035a575f5ffd5b50610375600480360381019061037091906115e6565b610b51565b6040516103829190611529565b60405180910390f35b6103a560048036038101906103a091906115e6565b610b66565b005b6103c160048036038101906103bc91906115e6565b610f74565b005b3480156103ce575f5ffd5b506103e960048036038101906103e491906115e6565b611122565b6040516103f69190611620565b60405180910390f35b34801561040a575f5ffd5b5061042560048036038101906104209190611735565b611152565b6040516104329190611620565b60405180910390f35b348015610446575f5ffd5b50610461600480360381019061045c91906114e6565b61118d565b005b34801561046e575f5ffd5b5061048960048036038101906104849190611575565b611211565b6040516104969190611529565b60405180910390f35b6004602052805f5260405f205f915090505481565b60055481565b5f60035f8481526020019081526020015f205f8373ffffffffffffffffffffffffffffffffffffffff1673ffffffffffffffffffffffffffffffffffffffff1681526020019081526020015f205f9054906101000a900460ff16905092915050565b6006602052805f5260405f205f915090505481565b6007602052805f5260405f205f915090505481565b600a602052805f5260405f205f915054906101000a900460ff1681565b61056b611231565b6105745f6112b8565b565b61057e611379565b5f60085f8381526020019081526020015f205f3373ffffffffffffffffffffffffffffffffffffffff1673ffffffffffffffffffffffffffffffffffffffff1681526020019081526020015f205490505f60075f8481526020019081526020015f205490505f60065f8581526020019081526020015f205490505f828483610606919061178d565b61061091906117fb565b90508060065f8781526020019081526020015f205f828254610632919061182b565b925050819055505f3373ffffffffffffffffffffffffffffffffffffffff168260405161065e9061188b565b5f6040518083038185875af1925050503d805f8114610698576040519150601f19603f3d011682016040523d82523d5f602084013e61069d565b606091505b50509050806106e1576040517f08c379a00000000000000000000000000000000000000000000000000000000081526004016106d8906118f9565b60405180910390fd5b50505050506106ee61139b565b50565b6003602052815f5260405f20602052805f5260405f205f915091509054906101000a900460ff1681565b5f5f5f9054906101000a900473ffffffffffffffffffffffffffffffffffffffff16905090565b5f60015f8681526020019081526020015f205414610795576040517f08c379a000000000000000000000000000000000000000000000000000000000815260040161078c90611961565b60405180910390fd5b5f83116107d7576040517f08c379a00000000000000000000000000000000000000000000000000000000081526004016107ce906119c9565b60405180910390fd5b8260015f8681526020019081526020015f20819055503360025f8681526020019081526020015f205f6101000a81548173ffffffffffffffffffffffffffffffffffffffff021916908373ffffffffffffffffffffffffffffffffffffffff160217905550600160035f8681526020019081526020015f205f3373ffffffffffffffffffffffffffffffffffffffff1673ffffffffffffffffffffffffffffffffffffffff1681526020019081526020015f205f6101000a81548160ff0219169083151502179055503373ffffffffffffffffffffffffffffffffffffffff16847f2f3c3ba9558fedbdacb39c9acd17592dd616c4f9302d60f14e7c45cc7194b5208484876040516108eb93929190611a31565b60405180910390a350505050565b610901611379565b610909611231565b5f60098054905090505f8111610954576040517f08c379a000000000000000000000000000000000000000000000000000000000815260040161094b90611aab565b60405180910390fd5b5f5f90505b81811015610b38575f6009828154811061097657610975611ac9565b5b905f5260205f20015f9054906101000a900473ffffffffffffffffffffffffffffffffffffffff1690505f60045f8373ffffffffffffffffffffffffffffffffffffffff1673ffffffffffffffffffffffffffffffffffffffff1681526020019081526020015f205490505f811115610ad5575f60045f8473ffffffffffffffffffffffffffffffffffffffff1673ffffffffffffffffffffffffffffffffffffffff1681526020019081526020015f20819055505f8273ffffffffffffffffffffffffffffffffffffffff1682604051610a509061188b565b5f6040518083038185875af1925050503d805f8114610a8a576040519150601f19603f3d011682016040523d82523d5f602084013e610a8f565b606091505b5050905080610ad3576040517f08c379a0000000000000000000000000000000000000000000000000000000008152600401610aca906118f9565b60405180910390fd5b505b5f600a5f8473ffffffffffffffffffffffffffffffffffffffff1673ffffffffffffffffffffffffffffffffffffffff1681526020019081526020015f205f6101000a81548160ff02191690831515021790555050508080600101915050610959565b5060095f610b46919061144b565b50610b4f61139b565b565b6001602052805f5260405f205f915090505481565b610b6e611379565b5f60015f8381526020019081526020015f2054905080341015610bc6576040517f08c379a0000000000000000000000000000000000000000000000000000000008152600401610bbd90611b40565b60405180910390fd5b60035f8381526020019081526020015f205f3373ffffffffffffffffffffffffffffffffffffffff1673ffffffffffffffffffffffffffffffffffffffff1681526020019081526020015f205f9054906101000a900460ff1615610c5f576040517f08c379a0000000000000000000000000000000000000000000000000000000008152600401610c5690611ba8565b60405180910390fd5b600160035f8481526020019081526020015f205f3373ffffffffffffffffffffffffffffffffffffffff1673ffffffffffffffffffffffffffffffffffffffff1681526020019081526020015f205f6101000a81548160ff0219169083151502179055505f6064605a34610cd3919061178d565b610cdd91906117fb565b90505f6064600534610cef919061178d565b610cf991906117fb565b90505f818334610d09919061182b565b610d13919061182b565b90505f60025f8781526020019081526020015f205f9054906101000a900473ffffffffffffffffffffffffffffffffffffffff1690508360045f8373ffffffffffffffffffffffffffffffffffffffff1673ffffffffffffffffffffffffffffffffffffffff1681526020019081526020015f205f828254610d959190611bc6565b925050819055505f600a5f8373ffffffffffffffffffffffffffffffffffffffff1673ffffffffffffffffffffffffffffffffffffffff1681526020019081526020015f205f6101000a81548160ff021916908315150217905515610eaa57600981908060018154018082558091505060019003905f5260205f20015f9091909190916101000a81548173ffffffffffffffffffffffffffffffffffffffff021916908373ffffffffffffffffffffffffffffffffffffffff1602179055506001600a5f8373ffffffffffffffffffffffffffffffffffffffff1673ffffffffffffffffffffffffffffffffffffffff1681526020019081526020015f205f6101000a81548160ff0219169083151502179055505b8160055f828254610ebb9190611bc6565b925050819055505f60075f8881526020019081526020015f20541115610f07578260065f8881526020019081526020015f205f828254610efb9190611bc6565b92505081905550610f20565b8260055f828254610f189190611bc6565b925050819055505b3373ffffffffffffffffffffffffffffffffffffffff16867ff20afd7b032307b01752ee91e3f6a4b83a5b4ab631f9ab279322fd45634382c060405160405180910390a35050505050610f7161139b565b50565b610f7c611379565b5f3411610fbe576040517f08c379a0000000000000000000000000000000000000000000000000000000008152600401610fb590611c43565b60405180910390fd5b5f600a60015f8481526020019081526020015f2054610fdd91906117fb565b9050803460075f8581526020019081526020015f2054610ffd9190611bc6565b111561103e576040517f08c379a000000000000000000000000000000000000000000000000000000000815260040161103590611cab565b60405180910390fd5b3460085f8481526020019081526020015f205f3373ffffffffffffffffffffffffffffffffffffffff1673ffffffffffffffffffffffffffffffffffffffff1681526020019081526020015f205f8282546110999190611bc6565b925050819055503460075f8481526020019081526020015f205f8282546110c09190611bc6565b925050819055503373ffffffffffffffffffffffffffffffffffffffff16827f33d3d5394940f875165e970f73650b86770fcee50f641313bb760de473fb601f3460405161110e9190611529565b60405180910390a35061111f61139b565b50565b6002602052805f5260405f205f915054906101000a900473ffffffffffffffffffffffffffffffffffffffff1681565b60098181548110611161575f80fd5b905f5260205f20015f915054906101000a900473ffffffffffffffffffffffffffffffffffffffff1681565b611195611231565b5f73ffffffffffffffffffffffffffffffffffffffff168173ffffffffffffffffffffffffffffffffffffffff1603611205575f6040517f1e4fbdf70000000000000000000000000000000000000000000000000000000081526004016111fc9190611620565b60405180910390fd5b61120e816112b8565b50565b6008602052815f5260405f20602052805f5260405f205f91509150505481565b6112396113b5565b73ffffffffffffffffffffffffffffffffffffffff1661125761071b565b73ffffffffffffffffffffffffffffffffffffffff16146112b65761127a6113b5565b6040517f118cdaa70000000000000000000000000000000000000000000000000000000081526004016112ad9190611620565b60405180910390fd5b565b5f5f5f9054906101000a900473ffffffffffffffffffffffffffffffffffffffff169050815f5f6101000a81548173ffffffffffffffffffffffffffffffffffffffff021916908373ffffffffffffffffffffffffffffffffffffffff1602179055508173ffffffffffffffffffffffffffffffffffffffff168173ffffffffffffffffffffffffffffffffffffffff167f8be0079c531659141344cd1fd0a4f28419497f9722a3daafe3b4186f6b6457e060405160405180910390a35050565b6113816113bc565b600261139361138e6113fd565b611426565b5f0181905550565b60016113ad6113a86113fd565b611426565b5f0181905550565b5f33905090565b6113c461142f565b156113fb576040517f3ee5aeb500000000000000000000000000000000000000000000000000000000815260040160405180910390fd5b565b5f7f9b779b17422d0df92223018b32b4d1fa46e071723d6817e2486d003becc55f005f1b905090565b5f819050919050565b5f600261144261143d6113fd565b611426565b5f015414905090565b5080545f8255905f5260205f20908101906114669190611469565b50565b5b80821115611480575f815f90555060010161146a565b5090565b5f5ffd5b5f5ffd5b5f73ffffffffffffffffffffffffffffffffffffffff82169050919050565b5f6114b58261148c565b9050919050565b6114c5816114ab565b81146114cf575f5ffd5b50565b5f813590506114e0816114bc565b92915050565b5f602082840312156114fb576114fa611484565b5b5f611508848285016114d2565b91505092915050565b5f819050919050565b61152381611511565b82525050565b5f60208201905061153c5f83018461151a565b92915050565b5f819050919050565b61155481611542565b811461155e575f5ffd5b50565b5f8135905061156f8161154b565b92915050565b5f5f6040838503121561158b5761158a611484565b5b5f61159885828601611561565b92505060206115a9858286016114d2565b9150509250929050565b5f8115159050919050565b6115c7816115b3565b82525050565b5f6020820190506115e05f8301846115be565b92915050565b5f602082840312156115fb576115fa611484565b5b5f61160884828501611561565b91505092915050565b61161a816114ab565b82525050565b5f6020820190506116335f830184611611565b92915050565b61164281611511565b811461164c575f5ffd5b50565b5f8135905061165d81611639565b92915050565b5f5ffd5b5f5ffd5b5f5ffd5b5f5f83601f84011261168457611683611663565b5b8235905067ffffffffffffffff8111156116a1576116a0611667565b5b6020830191508360018202830111156116bd576116bc61166b565b5b9250929050565b5f5f5f5f606085870312156116dc576116db611484565b5b5f6116e987828801611561565b94505060206116fa8782880161164f565b935050604085013567ffffffffffffffff81111561171b5761171a611488565b5b6117278782880161166f565b925092505092959194509250565b5f6020828403121561174a57611749611484565b5b5f6117578482850161164f565b91505092915050565b7f4e487b71000000000000000000000000000000000000000000000000000000005f52601160045260245ffd5b5f61179782611511565b91506117a283611511565b92508282026117b081611511565b915082820484148315176117c7576117c6611760565b5b5092915050565b7f4e487b71000000000000000000000000000000000000000000000000000000005f52601260045260245ffd5b5f61180582611511565b915061181083611511565b9250826118205761181f6117ce565b5b828204905092915050565b5f61183582611511565b915061184083611511565b925082820390508181111561185857611857611760565b5b92915050565b5f81905092915050565b50565b5f6118765f8361185e565b915061188182611868565b5f82019050919050565b5f6118958261186b565b9150819050919050565b5f82825260208201905092915050565b7f5472616e73666572206661696c656400000000000000000000000000000000005f82015250565b5f6118e3600f8361189f565b91506118ee826118af565b602082019050919050565b5f6020820190508181035f830152611910816118d7565b9050919050565b7f49442065786973747300000000000000000000000000000000000000000000005f82015250565b5f61194b60098361189f565b915061195682611917565b602082019050919050565b5f6020820190508181035f8301526119788161193f565b9050919050565b7f5072696365203e203000000000000000000000000000000000000000000000005f82015250565b5f6119b360098361189f565b91506119be8261197f565b602082019050919050565b5f6020820190508181035f8301526119e0816119a7565b9050919050565b828183375f83830152505050565b5f601f19601f8301169050919050565b5f611a10838561189f565b9350611a1d8385846119e7565b611a26836119f5565b840190509392505050565b5f6040820190508181035f830152611a4a818587611a05565b9050611a59602083018461151a565b949350505050565b7f4e6f206f6e6520746f20706179000000000000000000000000000000000000005f82015250565b5f611a95600d8361189f565b9150611aa082611a61565b602082019050919050565b5f6020820190508181035f830152611ac281611a89565b9050919050565b7f4e487b71000000000000000000000000000000000000000000000000000000005f52603260045260245ffd5b7f496e73756666696369656e742066756e647300000000000000000000000000005f82015250565b5f611b2a60128361189f565b9150611b3582611af6565b602082019050919050565b5f6020820190508181035f830152611b5781611b1e565b9050919050565b7f416c7265616479206163636573736564000000000000000000000000000000005f82015250565b5f611b9260108361189f565b9150611b9d82611b5e565b602082019050919050565b5f6020820190508181035f830152611bbf81611b86565b9050919050565b5f611bd082611511565b9150611bdb83611511565b9250828201905080821115611bf357611bf2611760565b5b92915050565b7f43616e6e6f74207374616b6520300000000000000000000000000000000000005f82015250565b5f611c2d600e8361189f565b9150611c3882611bf9565b602082019050919050565b5f6020820190508181035f830152611c5a81611c21565b9050919050565b7f43617020726561636865640000000000000000000000000000000000000000005f82015250565b5f611c95600b8361189f565b9150611ca082611c61565b602082019050919050565b5f6020820190508181035f830152611cc281611c89565b905091905056fea264697066735822122090cd676c13d47a896bad3e5a7db7aed0b5e91b5bdcf2a55e30600279142a19a464736f6c634300081e0033",
        "linkReferences": {}
    },
    "methodIdentifiers": {
        "articleCreators(bytes32)": "d276c07e",
        "articlePrices(bytes32)": "c01f1416",
        "articleRewardPool(bytes32)": "4de8fe5d",
        "checkAccess(bytes32,address)": "3e1fd0da",
        "claimRewards(bytes32)": "7790ddc6",
        "creatorBalances(address)": "2a782802",
        "creatorsToPay(uint256)": "d74484d0",
        "distributeCreatorIncome()": "ae3f6a23",
        "hasAccess(bytes32,address)": "83177db3",
        "isWaitingForPay(address)": "630a5b6c",
        "owner()": "8da5cb5b",
        "payToAccess(bytes32)": "c02f54fc",
        "registerArticle(bytes32,uint256,string)": "a165d084",
        "renounceOwnership()": "715018a6",
        "stake(bytes32)": "c0d64a87",
        "totalStakedOnArticle(bytes32)": "606d8847",
        "transferOwnership(address)": "f2fde38b",
        "treasuryBalance()": "313dab20",
        "userStakes(bytes32,address)": "fe27221e"
    },
    "id": 22
}